:100000000C9434000C9451000C9451000C94510049
:100010000C9451000C9451000C9451000C9451001C
:100020000C9451000C9465010C9451000C945100F7
:100030000C9451000C9451000C9451000C945100FC
:100040000C9451000C9451000C9451000C945100EC
:100050000C9451000C9451000C9451000C945100DC
:100060000C9451000C94510011241FBECFEFD8E026
:10007000DEBFCDBF11E0A0E0B1E0E2E3F9E002C0F5
:1000800005900D92A23AB107D9F723E0A2EAB1E0B8
:1000900001C01D92A73BB207E1F70E940A040C942D
:1000A00097040C9400007894D0912C01C0912D01FC
:1000B00020902E0130902F0140903001509031015E
:1000C000609032017090330180903401909035013E
:1000D000A0903601BD2EDC2EC12CED2EFC2E810110
:1000E0009201A301B4018A2D0E943B022FEF8DE201
:1000F00092E2215080409040E1F700C00000CC2403
:10010000C394EB2CFD2C00912E0110912F01209116
:1001100030013091310140913201509133016091B1
:10012000340170913501809136010E943B022FEF1E
:100130008DE292E2215080409040E1F700C0000043
:10014000CBCFCF93DF9300D000D0CDB7DEB778947C
:100150001C821B82D0901601B090170120911801CB
:100160002983809119018A83A0901A0190901B0124
:1001700080901C0170901D0160901E0150901F0125
:10018000409020013D2C2B2CCC24C394ED2CFB2C37
:1001900009811A812A2D392D482D572D662D752D4F
:1001A000842D0E943B029FEF2DE282E2915020407D
:1001B0008040E1F700C0000064E070E087E391E078
:1001C0000E94DD038B81805D0E94D60361E070E0B8
:1001D0008CE391E00E94F103C12CE32CF22C0091FE
:1001E00018011091190120911A0130911B014091C1
:1001F0001C0150911D0160911E0170911F018091A1
:1002000020010E943B029FEF2DE282E291502040AC
:100210008040E1F700C000008B819C8101969C83A7
:100220008B830A970CF4B0CF1C821B82ADCF7894DD
:10023000D0912101C091220120902301309024010E
:100240004090250150902601609027017090280170
:100250008090290190902A01A0902B01BD2EDC2EC8
:10026000C12CED2EFC2E81019201A301B4018A2D37
:100270000E943B022FEF83ED90E32150804090409D
:10028000E1F700C00000CC24C394EB2CFD2C0091BE
:1002900023011091240120912501309126014091E4
:1002A0002701509128016091290170912A018091C4
:1002B0002B010E943B022FEF83ED90E32150804001
:1002C0009040E1F700C00000CBCF1F920F920FB615
:1002D0000F921124CF92EF92FF920F931F932F93BF
:1002E0003F934F935F936F937F938F939F93AF93BE
:1002F000BF93EF93FF938091A6019091A701019680
:100300009093A7018093A6018C3D9540ACF180911C
:10031000A2019091A30101969093A3018093A20161
:100320008091A4019091A501892BE1F5CC24C3947F
:10033000E0900B01F0900C0100910D0110910E0165
:1003400020910F0130911001409111015091120143
:100350006091130170911401809115010E943B027C
:1003600081E090E09093A5018093A4011092A701F1
:100370001092A6010E94C902FF91EF91BF91AF9127
:100380009F918F917F916F915F914F913F912F91AD
:100390001F910F91FF90EF90CF900F900FBE0F9095
:1003A0001F901895C12CE0900B01F0900C0100916A
:1003B0000D0110910E0120910F013091100140911B
:1003C00011015091120160911301709114018091FB
:1003D00015010E943B021092A5011092A401C6CF04
:1003E000EF92FF920F931F93CF93DF93CDB7DEB7BA
:1003F0002B970FB6F894DEBF0FBECDBFE982FA820D
:100400000B831C83922F2D833E834F8358876987EC
:100410007A878B87AE81BF818C9121E030E001C06B
:10042000220F9A95EAF749815A814130510579F4B2
:10043000822B8C932B960FB6F894DEBF0FBECDBFE8
:10044000DF91CF911F910F91FF90EF9008954B8115
:100450005C81E885F985922F909589238C934130B2
:10046000510521F48081822B8083E4CF452B11F745
:1004700080818923F9CFCF92EF92FF920F931F9340
:10048000CF93DF93CDB7DEB72B970FB6F894DEBFCF
:100490000FBECDBFE982FA820B831C83A22F2D836E
:1004A0003E834F83588769877A878B87E885F985EC
:1004B000208181E090E001C0880FAA95EAF7CC2066
:1004C00081F0822B80832B960FB6F894DEBF0FBE8F
:1004D000CDBFDF91CF911F910F91FF90EF90CF9003
:1004E000089580958223EECFEF92FF920F931F9392
:1004F000CF93DF93CDB7DEB72B970FB6F894DEBF5F
:100500000FBECDBF7A878B87EA85FB85808190E01F
:1005100002C0959587952A95E2F781702B960FB6C4
:10052000F894DEBF0FBECDBFDF91CF911F910F9129
:10053000FF90EF90089586E091E0EBEAF1E0DF01B3
:100540009C011D9221503040E1F7E7EBF2E087EB90
:1005500093E011928E179F07E1F70895AC019091F7
:10056000A80166E071E0969F9001979F300D1124DD
:10057000F901E555FE4F5383428341E050E0558336
:10058000448320553D4F318320839F5F9093A80182
:100590000895CF93DF938091A801823008F4F7C0CB
:1005A000F89462E170E08EE391E00E94DD038091B7
:1005B000A901805D0E94D60362E070E08EE491E0C4
:1005C0000E94DD038091A9019091AA01C6E0D1E0CB
:1005D0008C9FF0018D9FF00D9C9FF00D1124E5552F
:1005E000FE4F84819581029709F09EC067E170E01B
:1005F00081E591E00E94F1030F920FB6F8940F92FB
:100600001F922F923F924F925F926F927F928F92A2
:100610009F92AF92BF92CF92DF92EF92FF920F9391
:100620001F932F933F934F935F936F937F938F937A
:100630009F93AF93BF93CF93DF93EF93FF938DB7C8
:100640009EB72091A9013091AA012C9FF0012D9F06
:10065000F00D3C9FF00D1124E555FE4F91838083F2
:1006600081E090E02091A9013091AA01232B11F0A3
:1006700090E080E09093AA018093A9016DE070E082
:1006800089E791E00E94DD038091A901805D0E94CD
:10069000D60362E070E08EE491E00E94DD03809179
:1006A000A9019091AA01C6E0D1E08C9FF0018D9F35
:1006B000F00D9C9FF00D1124E555FE4F8081918136
:1006C0009EBF8DBF8091A9019091AA018C9FF001DE
:1006D0008D9FF00D9C9FF00D1124E555FE4F8481F8
:1006E00095818130910539F56FE070E087E891E000
:1006F0000E94F1038091A9019091AA018C9FD001E1
:100700008D9FB00D9C9FB00D1124A555BE4F129624
:10071000ED91FC91139782E090E015969C938E9357
:100720001497DF91CF9109946FE070E089E691E032
:100730000E94F10395CF029709F029C069E070E0AB
:1007400087E991E00E94F103FF91EF91DF91CF9152
:10075000BF91AF919F918F917F916F915F914F91D9
:100760003F912F911F910F91FF90EF90DF90CF90CD
:10077000BF90AF909F908F907F906F905F904F90C1
:100780003F902F901F900F900FBE0F907894DF91A5
:10079000CF9108951092C50087E68093C40088E049
:1007A0008093C10086E08093C20008959091C000BC
:1007B00095FFFCCF8093C60008950F931F93CF93AE
:1007C000DF93EC018C01060F171FC017D10729F426
:1007D000DF91CF911F910F91089589910E94D603C7
:1007E000F4CF0F931F93CF93DF93EC018C01060F8F
:1007F000171FC017D10751F48DE00E94D6038AE07D
:10080000DF91CF911F910F910C94D60389910E9493
:10081000D603EFCFF8940E94CA03E0902C01F09029
:100820002D0100912E0110912F0120913001309166
:100830003101409132015091330160913401709146
:100840003501809136010E94F001E0902101F09085
:100850002201009123011091240120912501309162
:100860002601409127015091280160912901709142
:100870002A0180912B010E94F001E0901601F09076
:100880001701009118011091190120911A0130915E
:100890001B0140911C0150911D0160911E0170913E
:1008A0001F01809120010E94F001E0900B01F09067
:1008B0000C0100910D0110910E0120910F0130915A
:1008C000100140911101509112016091130170913A
:1008D0001401809115010E94F001E0900001F09058
:1008E0000101009102011091030120910401309156
:1008F0000501409106015091070160910801709136
:10090000090180910A010E94F0010E949B0284E08B
:100910008093B10081E08093700081EA90E00E94B2
:10092000AE0283E590E00E94AE027894FFCFF89487
:02093000FFCFF7
:100932000000FFFF01240025002300010000000247
:1009420024002500230001000000032400250023C9
:100952000001000000042400250023000100000023
:1009620005240025002300633A205B005D006375C7
:100972007272656E74207461736B207761733A20B2
:100982000072756E6E696E67207461736B206861A8
:10099200732070617573656400776173206E6F7484
:1009A2002072756E6E696E67006E65772074617372
:1009B2006B2069733A2000206C61756E6368696E02
:1009C20067207461736B0020726573756D696E6761
:0209D200000023
:00000001FF
