:100000000C9434000C9451000C9451000C94510049
:100010000C9451000C9451000C9451000C9451001C
:100020000C9451000C9416010C9451000C94510046
:100030000C9451000C9451000C9451000C945100FC
:100040000C9451000C9451000C9451000C945100EC
:100050000C9451000C9451000C9451000C945100DC
:100060000C9451000C94510011241FBECFEFD8E026
:10007000DEBFCDBF11E0A0E0B1E0ECE0F8E002C0EF
:1000800005900D92AA34B107D9F726E0AAE4B1E0B1
:1000900001C01D92A730B207E1F70E9473030C94D0
:1000A00004040C940000D0912101C0912201209001
:1000B000230130902401409025015090260160904A
:1000C0002701709028018090290190902A01A0902A
:1000D0002B01BD2EDC2EC12CED2EFC2E81019201B8
:1000E000A301B4018A2D0E94E3012FEF83ED90E379
:1000F000215080409040E1F700C00000CC24C39420
:10010000EB2CFD2C0091230110912401209125015D
:1001100030912601409127015091280160912901D9
:1001200070912A0180912B010E94E3012FEF83ED52
:1001300090E3215080409040E1F700C00000CBCF19
:10014000D0911601C091170120901801309019012B
:1001500040901A0150901B0160901C0170901D018D
:1001600080901E0190901F01A0902001BD2EDC2EDA
:10017000CC24C394ED2EFC2E81019201A301B40185
:100180008A2D0E94E3012FEF8DE292E22150804000
:100190009040E1F700C00000C12CEB2CFD2C009139
:1001A00018011091190120911A0130911B01409101
:1001B0001C0150911D0160911E0170911F018091E1
:1001C00020010E94E3012FEF8DE292E22150804056
:1001D0009040E1F700C00000CBCFD0E0C0E02FEFAF
:1001E0008DE292E2215080409040E1F700C0000093
:1001F00064E070E087E391E00E9446038C2F805D0D
:100200000E943F0361E070E08CE391E00E945A039A
:100210002FEF8DE292E2215080409040E1F700C044
:1002200000002196CA30D105D4F2D7CF1F920F9289
:100230000FB60F921124CF92EF92FF920F931F935C
:100240002F933F934F935F936F937F938F939F93DE
:10025000AF93BF93EF93FF9380914C0190914D0129
:10026000019690934D0180934C01843F914064F13D
:1002700080914A0190914B01892BE1F5CC24C394E4
:10028000E0900B01F0900C0100910D0110910E0116
:1002900020910F01309110014091110150911201F4
:1002A0006091130170911401809115010E94E30186
:1002B00081E090E090934B0180934A0110924D01B0
:1002C00010924C010E947E02FF91EF91BF91AF917D
:1002D0009F918F917F916F915F914F913F912F915E
:1002E0001F910F91FF90EF90CF900F900FBE0F9046
:1002F0001F901895C12CE0900B01F0900C0100911B
:100300000D0110910E0120910F01309110014091CB
:1003100011015091120160911301709114018091AB
:1003200015010E94E30110924B0110924A01C6CFC1
:10033000EF92FF920F931F93CF93DF93CDB7DEB76A
:100340002B970FB6F894DEBF0FBECDBFE982FA82BD
:100350000B831C83922F2D833E834F83588769879D
:100360007A878B87AE81BF818C9121E030E001C01C
:10037000220F9A95EAF749815A814130510579F463
:10038000822B8C932B960FB6F894DEBF0FBECDBF99
:10039000DF91CF911F910F91FF90EF9008954B81C6
:1003A0005C81E885F985922F909589238C93413063
:1003B000510521F48081822B8083E4CF452B11F7F6
:1003C00080818923F9CFCF92EF92FF920F931F93F1
:1003D000CF93DF93CDB7DEB72B970FB6F894DEBF80
:1003E0000FBECDBFE982FA820B831C83A22F2D831F
:1003F0003E834F83588769877A878B87E885F9859D
:10040000208181E090E001C0880FAA95EAF7CC2016
:1004100081F0822B80832B960FB6F894DEBF0FBE3F
:10042000CDBFDF91CF911F910F91FF90EF90CF90B3
:10043000089580958223EECFEF92FF920F931F9342
:10044000CF93DF93CDB7DEB72B970FB6F894DEBF0F
:100450000FBECDBF7A878B87EA85FB85808190E0D0
:1004600002C0959587952A95E2F781702B960FB675
:10047000F894DEBF0FBECDBFDF91CF911F910F91DA
:10048000FF90EF90089527E531E090E080E066E886
:10049000689FF001699FF00D1124EF5AFE4FDF01B4
:1004A000462F1D924A95E9F7F90150E040E011927C
:1004B0004F5F5F4F40385105D1F701962A573F4FA4
:1004C0008930910529F70895AC0120914E0186E805
:1004D000829FF0011124EF5AFE4F5383428341E083
:1004E00050E055834483289FC00111248A529E4FB7
:1004F000918380832F5F20934E01089580914E0158
:10050000882309F4AFC0F8940F920FB6F8940F92B5
:100510001F922F923F924F925F926F927F928F9293
:100520009F92AF92BF92CF92DF92EF92FF920F9382
:100530001F932F933F934F935F936F937F938F936B
:100540009F93AF93BF93CF93DF93EF93FF938091EC
:100550004F01909150012DB73EB746E8489FF001FA
:10056000499FF00D1124EF5AFE4F318320830196ED
:100570009093500180934F0120914E012817190646
:1005800009F024F41092500110924F016AE070E0DB
:100590008EE391E00E94460380914F01805D0E94AE
:1005A0003F0370E060E088E491E00E945A032091EC
:1005B0004F013091500186E8829FF001839FF00D3A
:1005C0001124EF5AFE4F208131813EBF2DBF209173
:1005D0004F0130915001829FF001839FF00D112453
:1005E000EF5AFE4F248135812230310509F023C0B6
:1005F000FF91EF91DF91CF91BF91AF919F918F913B
:100600007F916F915F914F913F912F911F910F912A
:10061000FF90EF90DF90CF90BF90AF909F908F9022
:100620007F906F905F904F903F902F901F900F9012
:100630000FBE0F90089521303105A1F422E030E083
:1006400035832483789420914F0130915001829F0B
:10065000F001839FF00D1124EF5AFE4F0280F381C9
:10066000E02D099408951092C50087E68093C40098
:1006700088E08093C10086E08093C2000895909145
:10068000C00095FFFCCF8093C60008950F931F9381
:10069000CF93DF93EC018C01060F171FC017D10712
:1006A00029F4DF91CF911F910F91089589910E94B4
:1006B0003F03F4CF0F931F93CF93DF93EC018C0193
:1006C000060F171FC017D10751F48DE00E943F039A
:1006D0008AE0DF91CF911F910F910C943F03899194
:1006E0000E943F03EFCFF8940E943303E0902C0167
:1006F000F0902D0100912E0110912F0120913001D9
:1007000030913101409132015091330160913401B7
:1007100070913501809136010E949801E09021018D
:10072000F0902201009123011091240120912501D4
:1007300030912601409127015091280160912901B3
:1007400070912A0180912B010E949801E09016017E
:10075000F0901701009118011091190120911A01D0
:1007600030911B0140911C0150911D0160911E01AF
:1007700070911F01809120010E949801E0900B016F
:10078000F0900C0100910D0110910E0120910F01CC
:1007900030911001409111015091120160911301AB
:1007A00070911401809115010E949801E090000160
:1007B000F0900101009102011091030120910401C8
:1007C00030910501409106015091070160910801A7
:1007D0007091090180910A010E9498010E944302D0
:1007E00084E08093B10081E08093700080EA90E023
:1007F0000E9464028DEE90E00E94640283E590E026
:0C0800000E9464027894FFCFF894FFCFB0
:10080C000000FFFF0124002500230001000000026E
:10081C0024002500230001000000032400250023F0
:10082C00000100000004240025002300010000004A
:10083C0005240025002300633A205B005D006E65F3
:0A084C0077207461736B3A200000FE
:00000001FF
