:100000000C9434000C9451000C9451000C94510049
:100010000C9451000C9451000C9451000C9451001C
:100020000C9451000C9480000C9451000C945100DD
:100030000C9451000C9451000C9451000C945100FC
:100040000C9451000C9451000C9451000C945100EC
:100050000C9451000C9451000C9451000C945100DC
:100060000C9451000C94510011241FBECFEFD8E026
:10007000DEBFCDBF12E0A0E0B1E0ECE9F8E002C0E5
:1000800005900D92AE32B107D9F726E0AEE2B2E0AC
:1000900001C01D92A73FB207E1F70E94A6030C948E
:1000A0004C040C9400000F931F93CF93DF93D82F31
:1000B000C92F8B0182E392E00E94FD02B8018D2FCF
:1000C0009C2F0E948D0382E392E0DF91CF911F91DC
:1000D0000F910C94390369E470E087E391E00E948A
:1000E0005300F9CF63E470E081E891E00E9453008F
:1000F000F9CF63E470E085EC91E00E945300F9CF02
:100100001F920F920FB60F921124CF92EF92FF928F
:100110000F931F932F933F934F935F936F937F930F
:100120008F939F93AF93BF93EF93FF938091300290
:100130009091310201969093310280933002843F76
:10014000914064F180912E0290912F02892BE1F56C
:10015000CC24C394E0900B01F0900C0100910D01B0
:1001600010910E0120910F01309110014091110169
:100170005091120160911301709114018091150149
:100180000E944D0181E090E090932F0280932E0217
:1001900010923102109230020E940202FF91EF9100
:1001A000BF91AF919F918F917F916F915F914F918F
:1001B0003F912F911F910F91FF90EF90CF900F9053
:1001C0000FBE0F901F901895C12CE0900B01F0907E
:1001D0000C0100910D0110910E0120910F01309141
:1001E0001001409111015091120160911301709121
:1001F0001401809115010E944D0110922F0210925E
:100200002E02C6CFEF92FF920F931F93CF93DF93EF
:10021000CDB7DEB72B970FB6F894DEBF0FBECDBFBC
:10022000E982FA820B831C83922F2D833E834F83B6
:10023000588769877A878B87AE81BF818C9121E04F
:1002400030E001C0220F9A95EAF749815A81413086
:10025000510579F4822B8C932B960FB6F894DEBF60
:100260000FBECDBFDF91CF911F910F91FF90EF9007
:1002700008954B815C81E885F985922F90958923BB
:100280008C934130510521F48081822B8083E4CF0F
:10029000452B11F780818923F9CFCF92EF92FF92FE
:1002A0000F931F93CF93DF93CDB7DEB72B970FB686
:1002B000F894DEBF0FBECDBFE982FA820B831C83A8
:1002C000A22F2D833E834F83588769877A878B8738
:1002D000E885F985208181E090E001C0880FAA952A
:1002E000EAF7CC2081F0822B80832B960FB6F8940E
:1002F000DEBF0FBECDBFDF91CF911F910F91FF9059
:10030000EF90CF90089580958223EECFEF92FF92E9
:100310000F931F93CF93DF93CDB7DEB72B970FB615
:10032000F894DEBF0FBECDBF7A878B87EA85FB8549
:10033000808190E002C0959587952A95E2F78170BB
:100340002B960FB6F894DEBF0FBECDBFDF91CF91D5
:100350001F910F91FF90EF900895FC018AE0DF015B
:100360001D928A95E9F7CF01089521E432E090E0EB
:1003700080E066E8689FF001699FF00D1124EF5B53
:10038000FD4FDF01462F1D924A95E9F7F90150E034
:1003900040E016824E5F5F4F329640385105C9F7F4
:1003A00001962A573F4F8930910521F70895682F0C
:1003B00080914002E1E4F2E030E020E044815581A8
:1003C000452BB9F476E8729FA001739F500D11245C
:1003D000FA01EF5BFD4F6283938321E030E03583C8
:1003E00024834A535D4F518340838F5F8093400243
:1003F00008952F5F3F4FEA57FF4F29303105F1F63F
:10040000F4CF08950F931F93CF93C6E802E010E056
:1004100080914002882309F4A8C0F8940F920FB687
:10042000F8940F921F922F923F924F925F926F9289
:100430007F928F929F92AF92BF92CF92DF92EF9274
:10044000FF920F931F932F933F934F935F936F935D
:100450007F938F939F93AF93BF93CF93DF93EF934C
:10046000FF9320913E0230913F028DB79EB7C29F0D
:10047000F001C39FF00D1124EF5BFD4F918380834A
:1004800080913E0290913F0209973CF580913E0297
:1004900090913F02019690933F0280933E0280919B
:1004A0003E0290913F02C89FF001C99FF00D1124B8
:1004B000EF5BFD4F84819581892B11F380913E0282
:1004C00090913F02C89FF001C99FF00D1124EF5B8E
:1004D000FD4F84819581039799F280913E0290911E
:1004E0003F0209970CF045C080913E0290913F0277
:1004F000C89FF001C99FF00D1124EF5BFD4F808173
:1005000091819EBF8DBF80913E0290913F02C89F16
:10051000F001C99FF00D1124EF5BFD4F848195819F
:10052000029709F02BC0FF91EF91DF91CF91BF911E
:10053000AF919F918F917F916F915F914F913F917B
:100540002F911F910F91FF90EF90DF90CF90BF9070
:10055000AF909F908F907F906F905F904F903F9063
:100560002F901F900F900FBE0F90CF911F910F9162
:10057000089510923F0210923E02B6CF80913E0243
:1005800090913F02C89FF001C99FF00D1124EF5BCD
:10059000FD4F84819581019741F780913E029091B2
:1005A0003F02C89FF001C99FF00D1124EF5BFD4F82
:1005B00015830483789480913E0290913F02C89FF6
:1005C000F001C99FF00D1124EF5BFD4F0280F38114
:1005D000E02D099580913E0290913F02C89FF00165
:1005E000C99FF00D1124EF5BFD4F1582148280919D
:1005F00040028150809340020BCFFC01F89420917F
:100600003E0230913F028185DF01A80FB11D2C937E
:1006100091E0980F9187882351F180913E0290914B
:100620003F0226E8289FF001299FF00D1124EF5B7F
:10063000FD4F848195810397D1F080913C02909188
:100640003D02019690933D0280933C0280913E02D0
:1006500090913F02289FF001299FF00D1124EF5B3C
:10066000FD4F83E090E0958384830E94020278949A
:100670000895FC01F8948185DF0191E09E1B292FEC
:100680002A0F2817F0F081508187E08186E8E89FE3
:10069000F0011124EF5BFD4F84819581029779F081
:1006A00080913C0290913D02019790933D0280938E
:1006B0003C0282E090E0958384830E940202789459
:1006C000089511962C9111972D93D9CF1092C500B2
:1006D00087E68093C40088E08093C10086E0809321
:1006E000C20008959091C00095FFFCCF8093C60092
:1006F00008950F931F93CF93DF93EC018C01060FA6
:10070000171FC017D10729F4DF91CF911F910F91C7
:10071000089589910E947203F4CF0F931F93CF9392
:10072000DF93EC018C01060F171FC017D10751F49E
:100730008DE00E9472038AE0DF91CF911F910F91AB
:100740000C94720389910E947203EFCFF8940E9477
:100750006603E0902C01F0902D0100912E01109184
:100760002F0120913001309131014091320150919F
:1007700033016091340170913501809136010E94FE
:100780000201E0902101F0902201009123011091DB
:10079000240120912501309126014091270150919B
:1007A00028016091290170912A0180912B010E94FA
:1007B0000201E0901601F0901701009118011091CC
:1007C000190120911A0130911B0140911C01509197
:1007D0001D0160911E0170911F01809120010E94F6
:1007E0000201E0900B01F0900C0100910D011091BD
:1007F0000E0120910F013091100140911101509193
:1008000012016091130170911401809115010E94F1
:100810000201E0900001F0900101009102011091AD
:10082000030120910401309105014091060150918E
:100830000701609108017091090180910A010E94ED
:1008400002010E94B50184E08093B10081E08093B1
:10085000700082E790E00E94D70189E790E00E9453
:10086000D7018BE690E00E94D7012FE780EF95E259
:10087000215080409040E1F700C0000061E170E04D
:1008800089E092E00E948D0361E170E08BE192E0EB
:0C0890000E948D037894FFCFF894FFCFF6
:10089C000000FFFF012400250023000100000002DE
:1008AC002400250023000100000003240025002360
:1008BC0000010000000424002500230001000000BA
:1008CC0005240025002300626F6E6A6F7572206C20
:1008DC0065206D6F6E64652121203C7665727920F0
:1008EC0076657279206C6F6E6720737472696E67AF
:1008FC00202121212121212121212120596579200B
:10090C006E6F74206C6F6E6720656E6F7567683ED6
:10091C000068656C6C6F20776F726C6421203C767C
:10092C006572792076657279206C6F6E67207374AE
:10093C0072696E6720212121212121212121212071
:10094C00596579206E6F74206C6F6E6720656E6FC1
:10095C007567683E00686F6C612071756574616CB9
:10096C0021203C766572792076657279206C6F6EE9
:10097C006720737472696E67202121212121212146
:10098C0021212120596579206E6F74206C6F6E6760
:10099C0020656E6F7567683E005363686564756C9F
:1009AC0065722073746172746564002D202D202D86
:0E09BC00202D202D202D202D202D202D00005F
:00000001FF
